S00B00004144432E7372656351
S11300000C942A000C9447000C9447000C9447006D
S11300100C9447000C9447000C9447000C94470040
S11300200C9447000C9447000C9447000C94470030
S11300300C9447000C9447000C9447000C94470020
S11300400C9447000C9447000C9447000C94470010
S11300500C94470011241FBECFE5D4E0DEBFCDBF12
S113006010E0A0E6B0E0E2E3F3E002C005900D92F8
S1130070A636B107D9F720E0A6E6B0E001C01D928C
S1130080AD36B207E1F70E9423010C9497010C945A
S11300900000AE98AF9A98B3282F207F9F70922BC0
S11300A098BBE9EFF0E03197F1F700C00000AF989A
S11300B0E9EFF0E03197F1F700C00000AF9A28B300
S11300C0F0E18F9FC0011124922F9F70892B88BB70
S11300D089EF90E00197F1F700C00000AF98E9EFD5
S11300E0F0E03197F1F700C000000895AE9AAF9A9E
S11300F098B3282F207F9F70922B98BBE9EFF0E0F4
S11301003197F1F700C00000AF98E9EFF0E03197C4
S1130110F1F700C00000AF9A28B3F0E18F9FC0014F
S11301201124922F9F70892B88BB89EF90E001974F
S1130130F1F700C00000AF98E9EFF0E03197F1F774
S113014000C0000008951F93CF93DF932AE030E0AE
S1130150B9010E946001C82FCB01B9010E9460015E
S1130160D82FCB01B9010E946001182F80E3860FBC
S11301700E94760080E3810F0E94760080E38D0F59
S11301800E94760080E38C0F0E947600DF91CF916D
S11301901F910895CF93DF93EC018881882331F078
S11301A021960E94760089918111FBCFDF91CF9136
S11301B00895A69AA79ABC9ABD9ABE9ABF9A87E850
S11301C093E10197F1F700C0000082E00E9449002A
S11301D088E20E9449008CE00E94490086E00E9467
S11301E0490081E00E94490080E80E944900089586
S11301F080EF8ABB1BBA83EE86B90895893000F577
S1130200806C87B986EA8A95F1F700C08AE020E01D
S113021030E044B155B1240F351FE3EFF1E03197DD
S1130220F1F700C000008150A1F7ADECBCEC0E94D6
S113023074019695879596958795969587950895D3
S113024080E090E008950E94D9000E94F80080E8C0
S11302500E94490080E690E00E94CA0082E80E9461
S1130260490080E00E94FE0090936C0080936B0034
S11302700E94A3002FE986E891E02150804090403D
S1130280E1F700C0000088E80E94490083E690E09E
S11302900E94CA008AE80E94490081E00E94FE0090
S11302A090936C0080936B000E94A3002FE986E872
S11302B091E0215080409040E1F700C00000C7CF9A
S11302C097FB072E16F4009407D077FD09D00E94FF
S11302D0830107FC05D03EF4909581959F4F0895C6
S11302E0709561957F4F0895A29FB001B39FC0019F
S11302F0A39F700D811D1124911DB29F700D811D4E
S11303001124911D0895AA1BBB1B51E107C0AA1F0C
S1130310BB1FA617B70710F0A61BB70B881F991FA2
S11303205A95A9F780959095BC01CD010895F8944C
S1050330FFCFF9
S1090332313A00323A00EA
S9030000FC
